{
  "contractName": "Caller",
  "abi": [
    {
      "anonymous": false,
      "inputs": [
        {
          "indexed": false,
          "internalType": "uint256",
          "name": "ethPrice",
          "type": "uint256"
        },
        {
          "indexed": false,
          "internalType": "uint256",
          "name": "id",
          "type": "uint256"
        }
      ],
      "name": "EthPriceUpdated",
      "type": "event"
    },
    {
      "anonymous": false,
      "inputs": [
        {
          "indexed": false,
          "internalType": "address",
          "name": "oracleAddress",
          "type": "address"
        }
      ],
      "name": "NewOracleAddress",
      "type": "event"
    },
    {
      "anonymous": false,
      "inputs": [
        {
          "indexed": false,
          "internalType": "uint256",
          "name": "id",
          "type": "uint256"
        }
      ],
      "name": "ReceivedNewRequestId",
      "type": "event"
    },
    {
      "inputs": [
        {
          "internalType": "address",
          "name": "_oracleInstanceAddress",
          "type": "address"
        }
      ],
      "name": "setOracleInstanceAddress",
      "outputs": [],
      "stateMutability": "nonpayable",
      "type": "function"
    },
    {
      "inputs": [],
      "name": "updateEthPrice",
      "outputs": [],
      "stateMutability": "nonpayable",
      "type": "function"
    },
    {
      "inputs": [
        {
          "internalType": "uint256",
          "name": "_ethPrice",
          "type": "uint256"
        },
        {
          "internalType": "uint256",
          "name": "_id",
          "type": "uint256"
        }
      ],
      "name": "callback",
      "outputs": [],
      "stateMutability": "nonpayable",
      "type": "function"
    }
  ],
  "bytecode": "0x608060405234801561001057600080fd5b506106f2806100206000396000f3fe608060405234801561001057600080fd5b50600436106100415760003560e01c806323c7e4a214610046578063b5d73ba414610050578063e9e17a9e1461006c575b600080fd5b61004e610088565b005b61006a6004803603810190610065919061047c565b610194565b005b6100866004803603810190610081919061042a565b6102eb565b005b6000600160009054906101000a900473ffffffffffffffffffffffffffffffffffffffff1673ffffffffffffffffffffffffffffffffffffffff166330c0b9ec6040518163ffffffff1660e01b8152600401602060405180830381600087803b1580156100f457600080fd5b505af1158015610108573d6000803e3d6000fd5b505050506040513d601f19601f8201168201806040525081019061012c9190610453565b905060016003600083815260200190815260200160002060006101000a81548160ff0219169083151502179055507ff066da677a9f308761cbf5f2fdbed8a3a4caf0cf4f85b596a9797f1c378ea6498160405161018991906105fd565b60405180910390a150565b600260009054906101000a900473ffffffffffffffffffffffffffffffffffffffff1673ffffffffffffffffffffffffffffffffffffffff163373ffffffffffffffffffffffffffffffffffffffff1614610224576040517f08c379a000000000000000000000000000000000000000000000000000000000815260040161021b906105bd565b60405180910390fd5b6003600082815260200190815260200160002060009054906101000a900460ff16610284576040517f08c379a000000000000000000000000000000000000000000000000000000000815260040161027b906105dd565b60405180910390fd5b816000819055506003600082815260200190815260200160002060006101000a81549060ff02191690557fb4f35977939fa8b5ffe552d517a8ff5223046b1fdd3ee0068ae38d1e2b8d001682826040516102df929190610618565b60405180910390a15050565b80600260006101000a81548173ffffffffffffffffffffffffffffffffffffffff021916908373ffffffffffffffffffffffffffffffffffffffff160217905550600260009054906101000a900473ffffffffffffffffffffffffffffffffffffffff16600160006101000a81548173ffffffffffffffffffffffffffffffffffffffff021916908373ffffffffffffffffffffffffffffffffffffffff1602179055507f83b00e25c000adada62072ff4992b6702b635a6e3d57e135bbd60a01be113ead600260009054906101000a900473ffffffffffffffffffffffffffffffffffffffff166040516103e091906105a2565b60405180910390a150565b6000813590506103fa8161068e565b92915050565b60008135905061040f816106a5565b92915050565b600081519050610424816106a5565b92915050565b60006020828403121561043c57600080fd5b600061044a848285016103eb565b91505092915050565b60006020828403121561046557600080fd5b600061047384828501610415565b91505092915050565b6000806040838503121561048f57600080fd5b600061049d85828601610400565b92505060206104ae85828601610400565b9150509250929050565b6104c181610652565b82525050565b60006104d4602d83610641565b91507f596f7520617265206e6f7420617574686f72697a656420746f2063616c6c207460008301527f6869732066756e6374696f6e2e000000000000000000000000000000000000006020830152604082019050919050565b600061053a602783610641565b91507f546869732072657175657374206973206e6f7420696e206d792070656e64696e60008301527f67206c6973742e000000000000000000000000000000000000000000000000006020830152604082019050919050565b61059c81610684565b82525050565b60006020820190506105b760008301846104b8565b92915050565b600060208201905081810360008301526105d6816104c7565b9050919050565b600060208201905081810360008301526105f68161052d565b9050919050565b60006020820190506106126000830184610593565b92915050565b600060408201905061062d6000830185610593565b61063a6020830184610593565b9392505050565b600082825260208201905092915050565b600061065d82610664565b9050919050565b600073ffffffffffffffffffffffffffffffffffffffff82169050919050565b6000819050919050565b61069781610652565b81146106a257600080fd5b50565b6106ae81610684565b81146106b957600080fd5b5056fea26469706673582212203736c28c717c180b5807d10c1746520e155a6cb295fd988c6ab73ea3389e73d864736f6c63430008000033",
  "immutableReferences": {},
  "source": "// SPDX-License-Identifier: MIT\npragma solidity ^0.8.0;\n\nimport {EthOraclePriceInterface} from \"./EthOraclePriceInterface.sol\";\n\ncontract Caller {\n    uint256 private ethPrice;\n\n    EthOraclePriceInterface private oracleInstance;\n    address private oracleAddress;\n\n    mapping(uint256 => bool) myRequests;\n\n    event NewOracleAddress(address oracleAddress);\n    event ReceivedNewRequestId(uint256 id);\n    event EthPriceUpdated(uint256 ethPrice, uint256 id);\n\n    modifier onlyOracle() {\n        require(\n            msg.sender == oracleAddress,\n            \"You are not authorized to call this function.\"\n        );\n        _;\n    }\n\n    function setOracleInstanceAddress(address _oracleInstanceAddress) public {\n        oracleAddress = _oracleInstanceAddress;\n        oracleInstance = EthOraclePriceInterface(oracleAddress);\n        emit NewOracleAddress(oracleAddress);\n    }\n\n    function updateEthPrice() public {\n        uint256 id = oracleInstance.getLatestEthPrice();\n        myRequests[id] = true;\n        emit ReceivedNewRequestId(id);\n    }\n\n    function callback(uint256 _ethPrice, uint256 _id) public onlyOracle {\n        require(myRequests[_id], \"This request is not in my pending list.\");\n        ethPrice = _ethPrice;\n        delete myRequests[_id];\n        emit EthPriceUpdated(_ethPrice, _id);\n    }\n}\n",
  "sourcePath": "/Users/home/Documents/repos/personal/eth-price-oracle/caller/contracts/Caller.sol",
  "compiler": {
    "name": "solc",
    "version": "0.8.0+commit.c7dfd78e.Emscripten.clang"
  },
  "schemaVersion": "3.4.14",
  "updatedAt": "2023-07-09T22:25:56.952Z",
  "networkType": "ethereum",
  "devdoc": {
    "kind": "dev",
    "methods": {},
    "version": 1
  },
  "userdoc": {
    "kind": "user",
    "methods": {},
    "version": 1
  }
}