{
  "contractName": "EthPriceOracle",
  "abi": [
    {
      "anonymous": false,
      "inputs": [
        {
          "indexed": false,
          "internalType": "address",
          "name": "callerAddress",
          "type": "address"
        },
        {
          "indexed": false,
          "internalType": "uint256",
          "name": "id",
          "type": "uint256"
        }
      ],
      "name": "GetLatestEthPrice",
      "type": "event"
    },
    {
      "anonymous": false,
      "inputs": [
        {
          "indexed": true,
          "internalType": "address",
          "name": "previousOwner",
          "type": "address"
        },
        {
          "indexed": true,
          "internalType": "address",
          "name": "newOwner",
          "type": "address"
        }
      ],
      "name": "OwnershipTransferred",
      "type": "event"
    },
    {
      "anonymous": false,
      "inputs": [
        {
          "indexed": false,
          "internalType": "uint256",
          "name": "ethPrice",
          "type": "uint256"
        },
        {
          "indexed": false,
          "internalType": "address",
          "name": "callerAddress",
          "type": "address"
        }
      ],
      "name": "SetLatestEthPrice",
      "type": "event"
    },
    {
      "inputs": [],
      "name": "owner",
      "outputs": [
        {
          "internalType": "address",
          "name": "",
          "type": "address"
        }
      ],
      "stateMutability": "view",
      "type": "function",
      "constant": true
    },
    {
      "inputs": [],
      "name": "renounceOwnership",
      "outputs": [],
      "stateMutability": "nonpayable",
      "type": "function"
    },
    {
      "inputs": [
        {
          "internalType": "address",
          "name": "newOwner",
          "type": "address"
        }
      ],
      "name": "transferOwnership",
      "outputs": [],
      "stateMutability": "nonpayable",
      "type": "function"
    },
    {
      "inputs": [],
      "name": "getLatestEthPrice",
      "outputs": [
        {
          "internalType": "uint256",
          "name": "",
          "type": "uint256"
        }
      ],
      "stateMutability": "nonpayable",
      "type": "function"
    },
    {
      "inputs": [
        {
          "internalType": "uint256",
          "name": "_ethPrice",
          "type": "uint256"
        },
        {
          "internalType": "address",
          "name": "_callerAddress",
          "type": "address"
        },
        {
          "internalType": "uint256",
          "name": "_id",
          "type": "uint256"
        }
      ],
      "name": "setLatestEthPrice",
      "outputs": [],
      "stateMutability": "nonpayable",
      "type": "function"
    }
  ],
  "bytecode": "0x608060405260006001556103e860025534801561001b57600080fd5b5061003861002d61003d60201b60201c565b61004560201b60201c565b610109565b600033905090565b60008060009054906101000a900473ffffffffffffffffffffffffffffffffffffffff169050816000806101000a81548173ffffffffffffffffffffffffffffffffffffffff021916908373ffffffffffffffffffffffffffffffffffffffff1602179055508173ffffffffffffffffffffffffffffffffffffffff168173ffffffffffffffffffffffffffffffffffffffff167f8be0079c531659141344cd1fd0a4f28419497f9722a3daafe3b4186f6b6457e060405160405180910390a35050565b6109f4806101186000396000f3fe608060405234801561001057600080fd5b50600436106100575760003560e01c806330c0b9ec1461005c578063715018a61461007a5780638da5cb5b14610084578063cf642f1f146100a2578063f2fde38b146100be575b600080fd5b6100646100da565b60405161007191906107c3565b60405180910390f35b6100826101a1565b005b61008c6101b5565b604051610099919061071f565b60405180910390f35b6100bc60048036038101906100b7919061053b565b6101de565b005b6100d860048036038101906100d39190610512565b61031a565b005b6000600160008154809291906100ef9061087d565b919050555060006002544233600154604051602001610110939291906106e2565b6040516020818303038152906040528051906020012060001c61013391906108f4565b905060016003600083815260200190815260200160002060006101000a81548160ff0219169083151502179055507f66793e87c011eea8f9a7f1a36ebb5cf486871a757eb3c6a71f9df08385149965338260405161019292919061073a565b60405180910390a18091505090565b6101a961039e565b6101b3600061041c565b565b60008060009054906101000a900473ffffffffffffffffffffffffffffffffffffffff16905090565b6101e661039e565b6003600082815260200190815260200160002060009054906101000a900460ff16610246576040517f08c379a000000000000000000000000000000000000000000000000000000000815260040161023d906107a3565b60405180910390fd5b6003600082815260200190815260200160002060006101000a81549060ff021916905560008290508073ffffffffffffffffffffffffffffffffffffffff1663b5d73ba485846040518363ffffffff1660e01b81526004016102a9929190610807565b600060405180830381600087803b1580156102c357600080fd5b505af11580156102d7573d6000803e3d6000fd5b505050507fb83f74a5595b22a375833ab65adb2bbd82372faae45709340e05ee551a01341d848460405161030c9291906107de565b60405180910390a150505050565b61032261039e565b600073ffffffffffffffffffffffffffffffffffffffff168173ffffffffffffffffffffffffffffffffffffffff161415610392576040517f08c379a000000000000000000000000000000000000000000000000000000000815260040161038990610763565b60405180910390fd5b61039b8161041c565b50565b6103a66104e0565b73ffffffffffffffffffffffffffffffffffffffff166103c46101b5565b73ffffffffffffffffffffffffffffffffffffffff161461041a576040517f08c379a000000000000000000000000000000000000000000000000000000000815260040161041190610783565b60405180910390fd5b565b60008060009054906101000a900473ffffffffffffffffffffffffffffffffffffffff169050816000806101000a81548173ffffffffffffffffffffffffffffffffffffffff021916908373ffffffffffffffffffffffffffffffffffffffff1602179055508173ffffffffffffffffffffffffffffffffffffffff168173ffffffffffffffffffffffffffffffffffffffff167f8be0079c531659141344cd1fd0a4f28419497f9722a3daafe3b4186f6b6457e060405160405180910390a35050565b600033905090565b6000813590506104f781610990565b92915050565b60008135905061050c816109a7565b92915050565b60006020828403121561052457600080fd5b6000610532848285016104e8565b91505092915050565b60008060006060848603121561055057600080fd5b600061055e868287016104fd565b935050602061056f868287016104e8565b9250506040610580868287016104fd565b9150509250925092565b61059381610841565b82525050565b6105aa6105a582610841565b6108c6565b82525050565b60006105bd602683610830565b91507f4f776e61626c653a206e6577206f776e657220697320746865207a65726f206160008301527f64647265737300000000000000000000000000000000000000000000000000006020830152604082019050919050565b6000610623602083610830565b91507f4f776e61626c653a2063616c6c6572206973206e6f7420746865206f776e65726000830152602082019050919050565b6000610663602783610830565b91507f546869732072657175657374206973206e6f7420696e206d792070656e64696e60008301527f67206c6973742e000000000000000000000000000000000000000000000000006020830152604082019050919050565b6106c581610873565b82525050565b6106dc6106d782610873565b6108ea565b82525050565b60006106ee82866106cb565b6020820191506106fe8285610599565b60148201915061070e82846106cb565b602082019150819050949350505050565b6000602082019050610734600083018461058a565b92915050565b600060408201905061074f600083018561058a565b61075c60208301846106bc565b9392505050565b6000602082019050818103600083015261077c816105b0565b9050919050565b6000602082019050818103600083015261079c81610616565b9050919050565b600060208201905081810360008301526107bc81610656565b9050919050565b60006020820190506107d860008301846106bc565b92915050565b60006040820190506107f360008301856106bc565b610800602083018461058a565b9392505050565b600060408201905061081c60008301856106bc565b61082960208301846106bc565b9392505050565b600082825260208201905092915050565b600061084c82610853565b9050919050565b600073ffffffffffffffffffffffffffffffffffffffff82169050919050565b6000819050919050565b600061088882610873565b91507fffffffffffffffffffffffffffffffffffffffffffffffffffffffffffffffff8214156108bb576108ba610925565b5b600182019050919050565b60006108d1826108d8565b9050919050565b60006108e382610983565b9050919050565b6000819050919050565b60006108ff82610873565b915061090a83610873565b92508261091a57610919610954565b5b828206905092915050565b7f4e487b7100000000000000000000000000000000000000000000000000000000600052601160045260246000fd5b7f4e487b7100000000000000000000000000000000000000000000000000000000600052601260045260246000fd5b60008160601b9050919050565b61099981610841565b81146109a457600080fd5b50565b6109b081610873565b81146109bb57600080fd5b5056fea264697066735822122009b76539775e36168053a5981b20a247eef2e635ccaca233631831f668062b9f64736f6c63430008000033",
  "immutableReferences": {},
  "source": "// SPDX-License-Identifier: MIT\npragma solidity ^0.8.0;\n\nimport \"@openzeppelin/contracts/access/Ownable.sol\";\nimport {CallerContractInterface} from \"./CallerContractInterface.sol\";\n\ncontract EthPriceOracle is Ownable {\n    uint private randNonce = 0;\n    uint private modulus = 1000;\n\n    mapping(uint256 => bool) pendingRequests;\n\n    event GetLatestEthPrice(address callerAddress, uint id);\n    event SetLatestEthPrice(uint256 ethPrice, address callerAddress);\n\n    /// @notice Computes and generates the request id and, for security reasons, this number should be hard to guess. Generating a unique id makes it harder for oracles to collude and manipulate the price for a particular request.\n    /// @dev Uses a naive random number generataion algorithm, better to use Chainlink VRF\n    /// @return The request ID, a random number between 0 and modulus\n    function getLatestEthPrice() public returns (uint256) {\n        randNonce++;\n        uint id = uint(\n            keccak256(abi.encodePacked(block.timestamp, msg.sender, randNonce))\n        ) % modulus;\n        pendingRequests[id] = true;\n        emit GetLatestEthPrice(msg.sender, id);\n        return id;\n    }\n\n    function setLatestEthPrice(\n        uint256 _ethPrice,\n        address _callerAddress,\n        uint256 _id\n    ) public onlyOwner {\n        require(\n            pendingRequests[_id],\n            \"This request is not in my pending list.\"\n        );\n        delete pendingRequests[_id];\n        CallerContractInterface callerContractInstance;\n        callerContractInstance = CallerContractInterface(_callerAddress);\n        callerContractInstance.callback(_ethPrice, _id);\n        emit SetLatestEthPrice(_ethPrice, _callerAddress);\n    }\n}\n",
  "sourcePath": "/Users/home/Documents/repos/personal/eth-price-oracle/oracle/contracts/EthPriceOracle.sol",
  "compiler": {
    "name": "solc",
    "version": "0.8.0+commit.c7dfd78e.Emscripten.clang"
  },
  "schemaVersion": "3.4.14",
  "updatedAt": "2023-07-09T22:25:48.421Z",
  "networkType": "ethereum",
  "devdoc": {
    "kind": "dev",
    "methods": {
      "getLatestEthPrice()": {
        "details": "Uses a naive random number generataion algorithm, better to use Chainlink VRF",
        "returns": {
          "_0": "The request ID, a random number between 0 and modulus"
        }
      },
      "owner()": {
        "details": "Returns the address of the current owner."
      },
      "renounceOwnership()": {
        "details": "Leaves the contract without owner. It will not be possible to call `onlyOwner` functions. Can only be called by the current owner. NOTE: Renouncing ownership will leave the contract without an owner, thereby disabling any functionality that is only available to the owner."
      },
      "transferOwnership(address)": {
        "details": "Transfers ownership of the contract to a new account (`newOwner`). Can only be called by the current owner."
      }
    },
    "version": 1
  },
  "userdoc": {
    "kind": "user",
    "methods": {
      "getLatestEthPrice()": {
        "notice": "Computes and generates the request id and, for security reasons, this number should be hard to guess. Generating a unique id makes it harder for oracles to collude and manipulate the price for a particular request."
      }
    },
    "version": 1
  }
}